S0120000506F73744C61625F30342E737265639A
S11300000C9434000C9451000C9451000C94510045
S11300100C94A1000C9451000C9451000C945100C8
S11300200C9451000C9451000C9451000C94510008
S11300300C9451000C9451000C9451000C945100F8
S11300400C9451000C9451000C9451000C945100E8
S11300500C9451000C9451000C9451000C945100D8
S11300600C9451000C94510011241FBECFEFD8E022
S1130070DEBFCDBF11E0A0E0B1E0E8E9F1E002C0ED
S113008005900D92A230B107D9F721E0A2E0B1E0CA
S113009001C01D92A530B207E1F70E9478000C94CC
S11300A0CA000C940000E1E6F0E080E8808384E07C
S11300B080831092C1008FEF8AB98BB984B18E60AE
S11300C084B983E085B987B1887F87B988B18360B3
S11300D088B90895E8E6F0E0808182608083ECE6E8
S11300E0F0E0808183608083089580958BB90895C2
S11300F0F8940E9453000E946A007894809104014D
S11301000E94750080910301882359F01092030125
S1130110809104018F5F80930401809104010E9407
S1130120750080910201882369F310920201809185
S11301300401815080930401809104010E947500A0
S1130140E1CF1F920F920FB60F9211242F938F932A
S11301509F9386B1982F917020910101213021F451
S1130160911102C020930201909301018695817040
S113017090910001913021F4811102C09093030108
S1130180809300019F918F912F910F900FBE0F903C
S10B01901F901895F894FFCFAD
S105019801015F
S9030000FC
