S0120000506F73744C61625F30342E737265639A
S11300000C9434000C9451000C9451000C94510045
S11300100C94C5000C9451000C9451000C945100A4
S11300200C9451000C9451000C9451000C94EE006B
S11300300C9451000C9451000C9451000C945100F8
S11300400C9451000C9451000C9451000C945100E8
S11300500C9451000C9434010C9451000C945100F4
S11300600C9451000C94510011241FBECFEFD8E022
S1130070DEBFCDBF11E0A0E0B1E0ECECF2E002C0E5
S113008005900D92A431B107D9F721E0A4E1B1E0C4
S113009001C01D92A931B207E1F70E949F000C94A0
S11300A064010C940000E1E6F0E080E8808384E0E1
S11300B080831092C1008FEF8AB98BB984B18F60AD
S11300C084B985B1807F85B987B18C7D87B988B1C2
S11300D0836088B90895E8E6F0E0808182608083D7
S11300E0ECE6F0E08081836080830895E1E8F0E04D
S11300F010828081886080838081836080838EE425
S113010090E09093890080938800EFE6F0E080818E
S11301108260808310928500109284000895ECE739
S1130120F0E01082808185668083EAE7F0E0108247
S11301308081836880838081886080830895F894B7
S11301400E9453000E946B000E948F000E94760060
S11301507894EAE7F0E080818064808380911601DE
S1130160882339F010921601809117018F5F8093D4
S1130170170180911501882389F31092150180914C
S11301801701815080931701E9CF1F920F920FB688
S11301900F9211242F938F939F9386B1982F917070
S11301A020910301213021F4911102C02093150103
S11301B0909303018695817090910201913021F40E
S11301C0811102C090931601809302019F918F9137
S11301D02F910F900FBE0F901F9018951F920F92A2
S11301E00FB60F9211248F939F9385B1817F85B9A8
S11301F080911401813061F018F0823081F015C0D3
S11302008091170180958BB985B1826085B90DC045
S1130210809101018BB985B1846085B906C0809154
S113022000018BB985B1886085B9809114018F5F15
S11302308093140180911401833011F410921401FD
S11302409091180180911701891720F485B181607C
S113025085B903C085B18E7F85B99F918F910F9029
S11302600FBE0F901F9018951F920F920FB60F920A
S113027011248F93AF93BF93EF93FF9380917900F1
S113028080931801A0911801A295AF70E091180114
S1130290EF70B0E0AC5FBE4F8C9180930001F0E052
S11302A0EC5FFE4F808180930101EAE7F0E08081FA
S11302B080648083FF91EF91BF91AF918F910F90F4
S10F02C00FBE0F901F901895F894FFCF0C
S11302CC4040010140752224150C086500050118F5
S10702DC4A300A0B8B
S9030000FC
