:020000020000FC
:040000000C941E003E
:040010000C94BF008D
:100038000C94B3000FEF0DBF08E00EBF00E800936B
:10004800610004E00093610000E00093C1000FE04C
:1000580004B900E005B90FEF0AB90FE70BB909E0D9
:10006800009300010E949F0000E007B903E008B96F
:1000780002E00093680003E000936C000E94930084
:1000880000E0009301010093020100930301009333
:10009800040101E00093050102E000930601789451
:1000A800009102010A3051F400E00093020100912E
:1000B800010103950F700093010105B90091030137
:1000C800013059F40091000103950F70009300016D
:1000D8000E949F0000E00093030100910401013099
:1000E80059F4009100010A950F70009300010E94D5
:1000F8009F0000E0009304010091010110910001AC
:100108000113CECF00E00093010105B90FEF4013B2
:1001180002C04FE701C04FEF0E949F00C1CF02E02D
:1001280004BD05E005BD01E607BD02E000936E00D1
:1001380000E006BD08950F931F93EF93FF9300917E
:100148000001000FE2EAF1E01127E00FF11F04912E
:1001580004230BB9FF91EF911F910F9108950F930D
:100168000FB70F93009102010395009302010F91BD
:100178000FBF0F9118950F931F930FB70F9316B1D9
:1001880010FF01E00093030111FF01E00093040157
:100198000F910FBF1F910F91189540007500220015
:1001A800240015000C00080065000000050001008F
:0A01B80018004A0030000A000B0096
:00000001FF
