S0120000506F73744C616230355F2E7372656399
S11300000C9434000C9446000C9446000C94460066
S11300100C9446000C9446000C9446000C94460044
S11300200C9446000C9446000C9446000C94460034
S11300300C9446000C9446000C9446000C94460024
S11300400C9426010C9446000C9446000C94460033
S11300500C9446000C94AB000C9446000C9446009F
S11300600C9446000C94460011241FBECFEFD8E038
S1130070DEBFCDBF21E0A0E0B1E001C01D92A930F8
S1130080B207E1F70E9499000C94A1010C940000BE
S1130090E1E6F0E080E8808383E0808384B18A60D5
S11300A084B98AB180648AB915B81BB80895E0E8A8
S11300B0F0E0808182688083E1E8F0E080818861FB
S11300C0808380818260808388E893E190938700B5
S11300D0809386008DE790E0909389008093880058
S11300E00895E0EBF0E01082A1EBB0E01C92808177
S11300F0836080838081806880838C9183608C930B
S11301008DE78093B300089514BC85B5836085BDE5
S1130110EEE6F0E0808181608083089580E480933E
S11301207C00EAE7F0E087E8808380818860808350
S11301300895F8940E9448000E9457000E9471009C
S11301400E9484000E948E007894EAE7F0E08081A7
S113015080648083FFCF1F920F920FB60F921124F9
S11301602F933F934F935F936F937F938F939F93BB
S1130170AF93BF93EF93FF93209178003091790070
S1130180809102018130C9F018F0823039F136C013
S11301903093080120930701A4EFB1E00E947E018F
S11301A02FEF33E040E050E00E945C0123583F4FC2
S11301B0309389002093880021C030930601209356
S11301C00501AFEFB0E00E947E012FEF33E040E085
S11301D050E00E945C012093B30010C030930401EE
S11301E020930301AFEFB0E00E947E012FEF33E0D4
S11301F040E050E00E945C012093010180910201E3
S113020090E0019663E070E00E944801809302014F
S1130210ECE7F0E0808190910201807F892B80835C
S1130220EAE7F0E0808180648083FF91EF91BF91E1
S1130230AF919F918F917F916F915F914F913F917A
S11302402F910F900FBE0F901F9018951F920F9231
S11302500FB60F9211248F939F93809100018F5FAB
S1130260809300018091000190910001809101012F
S1130270981720F48BB180648BB903C08BB18F7B4A
S11302808BB99F918F910F900FBE0F901F9018956F
S113029097FB072E16F4009407D077FD09D00E942F
S11302A08D0107FC05D03EF4909581959F4F0895EC
S11302B0709561957F4F0895A1E21A2EAA1BBB1B6E
S11302C0FD010DC0AA1FBB1FEE1FFF1FA217B3071E
S11302D0E407F50720F0A21BB30BE40BF50B661F34
S11302E0771F881F991F1A9469F7609570958095F8
S11302F090959B01AC01BD01CF010895A29FB0016F
S1130300B39FC001A39F700D811D1124911DB29F45
S1130310700D811D1124911D0895AA1BBB1B51E171
S113032007C0AA1FBB1FA617B70710F0A61BB70B61
S1130330881F991F5A95A9F780959095BC01CD0106
S10903400895F894FFCFBC
S9030000FC
