:020000020000FC
:040000000C941E003E
:040010000C949F03AA
:100038000C948B030FEF0DBF08E00EBF00E8009390
:10004800610004E00093610000E00093C1000FE349
:1000580004B900E005B90FEF0AB90FE70BB900E3DF
:1000680007B90FE008B902E0009368000FE00093B9
:100078006C000E94020100E000930001009301015E
:10008800009302010093030100930401009305010A
:1000980000930701009309010093190100931301CC
:1000A80000931401009315010093160100931D019C
:1000B80000931C0100931E0100931F0100930B0184
:1000C80000930C0100930D0100930E0100930F01A2
:1000D8000093100100931101009312010093200175
:1000E80001E00093060100930801009317010093B3
:1000F8001801789400911C01043669F440911801A4
:100108004330A1F0463091F0473081F05F9A00E823
:1001180000931D010BC0083C49F45F9800E0009370
:100128001D010E94D102002700931C010E940E01AC
:1001380000911801013031F4449A45982D980E9495
:100148002B015BC0023031F4449A45982D980E94E7
:10015800480153C0033031F44498459A2D980E94C1
:1001680065014BC0043031F4449A45982D9A0E9499
:10017800820143C0053031F4449A45982D9A0E9473
:10018800DF013BC0063031F44498459A2D9A0E940D
:10019800290233C0073031F44498459A2D9A0E94B9
:1001A80073022BC0083031F4449845982D9A0E9468
:1001B800820123C0093009F5449845982D9A0E9478
:1001C800DF010091160110910501011709F015C012
:1001D8000091150110910401011709F00EC000915A
:1001E800140110910301011709F007C000911301D0
:1001F80010910201011709F000C07CCF02E004BD94
:1002080003E005BD0EE407BD02E000936E0000E0C8
:1002180006BD089500911701013049F0023061F0E0
:10022800033079F0289829982A982B9A0FC0289A91
:1002380029982A982B980AC02898299A2A982B989E
:1002480005C0289829982A9A2B9800C008950091EB
:100258001701013029F0023041F0033059F00FC086
:10026800409100010E94BD020EC0409101010E9410
:10027800BD0209C0409102010E94BD0204C0409124
:1002880003010E94BD02089500911701013029F071
:10029800023041F0033059F00FC0409102010E9432
:1002A800BD020EC0409103010E94BD0209C04091E9
:1002B80004010E94BD0204C0409104010E94BD02D5
:1002C800089500911701013029F0023041F0033000
:1002D80059F00FC0409108010E94BD020EC0409124
:1002E80009010E94BD0209C0409106010E94BD0299
:1002F80004C0409107010E94BD02089500911701B2
:10030800013029F0023041F0033059F00FC040911C
:100318000B010E94BD020EC040910C010E94BD025B
:1003280009C0409104010E94BD0204C0409105012A
:100338000E94BD0290911E01913021F090911F0101
:100348009130A1F090E090931E0180910B01A09153
:100358000C0183958A302CF080E0939596300CF050
:1003680090E080930B0190930C0114C090E090935F
:100378001F0180910B01A0910C0181508F3F30F437
:1003880089E091509F3F10F495E004C080930B01E1
:1003980090930C0190912001913009F00BC090913D
:1003A8000B019093020190910C019093030190E04E
:1003B80090932001089500911701013029F002302F
:1003C80041F0033059F00FC0409102010E94BD0274
:1003D800B1CF409103010E94BD02ACCF40910D0105
:1003E8000E94BD02A7CF40910E010E94BD029091CC
:1003F8001E01913021F090911F01913059F090E049
:1004080090931E0190910D01939590930D010E9478
:1004180065030AC090E090931F0190910D019A9591
:1004280090930D010E94650390912001913009F08D
:100438000BC090910D019093040190910E0190933F
:10044800050190E090932001089500911701013073
:1004580029F0023041F0033059F00FC040910F01EC
:100468000E94BD020EC0409110010E94BD0209C049
:10047800409106010E94BD0204C0409107010E94FC
:10048800BD0290911E01913021F090911F01913091
:1004980059F090E090931E0190910F0193959093DD
:1004A8000F010E9466030AC090E090931F0190918B
:1004B8000F019A9590930F010E9466039091200175
:1004C800913009F00BC090910F0190930801909121
:1004D80010019093090190E09093200108950091F4
:1004E8001701013029F0023041F0033059F00FC0F4
:1004F800409108010E94BD02C4CF409109010E94A9
:10050800BD02BFCF409111010E94BD02BACF4091F8
:1005180012010E94BD0290911E01913021F090912C
:100528001F01913059F090E090931E0190911101B4
:100538009395909311010E9467030AC090E09093ED
:100548001F01909111019A95909311010E946703E0
:1005580090912001913009F00BC090911101909376
:100568000601909112019093070190E09093200169
:100578000895FF93EF930F931F93440FF7E0E8EB71
:1005880000E0E40FF01F449150911D01452B4BB939
:100598001F910F91EF91FF9108950091000109308B
:1005A80021F003950093000174C000E0009300015E
:1005B80000910101053021F003950093010169C004
:1005C80000E00093010100910201093021F0039538
:1005D800009302015EC000E0009302010091030154
:1005E800063021F003950093030153C000E0009307
:1005F80003011091040120910501223069F019309E
:1006080021F013951093040144C0239510E0109332
:100618000401209305013DC0143021F01395109377
:10062800040137C010E010930401109305010091F4
:10063800070110910601202F3AE0239F210F0E9405
:1006480068032395251739F00E9483034093070117
:10065800509306011EC040E04093070141E04093DB
:1006680006010091090110910801202F3AE0239F0B
:10067800210F23952D3039F00E94830340930901FF
:100688005093080106C040E04093090151E050939F
:100698000801089500910B01093021F0039500939A
:1006A8000B010EC000E000930B0100910C01063015
:1006B80021F0039500930C0103C000E000930C01A6
:1006C8000895089508950895FF93EF930F931F9346
:1006D8003F930091090110910801302F4AE0349F9F
:1006E800310FF7E0ECEC3A95330FE30F00E0F01F21
:1006F80054913F911F910F91EF91FF9108954427D5
:10070800522F5A301CF05A504395FBCF08950F933F
:100718000FB70F9300911C01039500931C010091E2
:1007280017010395053009F401E0009317010F91B3
:100738000FBF0F9118950F931F930FB70F9316B113
:1007480013FF01C00EC012FF01C01AC000911801AA
:10075800043048F111FF01C023C010FF24C01CC0A1
:1007680022C02C9B05C02C9800E0009319011BC0E7
:10077800009118010430B8F001E00093200113C083
:1007880000911801093021F00395009318010BC05E
:1007980001E00093180107C001E000931F0103C0A6
:1007A80001E000931E010F910FBF1F910F91189543
:1007B800400075002200240015000C0008006500A8
:1007C800000005001F001C001F001E001F001E0067
:0C07D8001F001F001E001F001E001F005D
:00000001FF
