S0120000506F73744C616230365F2E7372656398
S11300000C9434000C9449000C9449000C9449005D
S11300100C9449000C9449000C9449000C94490038
S11300200C9449000C9449000C9449000C94490028
S11300300C9449000C9449000C9449000C94490018
S11300400C9449000C9449000C9449000C94490008
S11300500C9449000C9449000C9449000C944900F8
S11300600C9449000C94490011241FBECFEFD8E032
S1130070DEBFCDBF11E0A0E0B1E0ECEAF2E002C0E7
S113008005900D92AC37B107D9F70E94F3000C9498
S113009054010C9400008FE084B980EF8AB915B83C
S11300A01BB808951092C50087E68093C40088E1C8
S11300B08093C10086E08093C20008959091C000AF
S11300C095FFFCCF8093C60008950F931F93CF93A1
S11300D08C01C0E003C00E945E00CF5FF801EC0F0A
S11300E0F11D80818111F7CFCF911F910F91089558
S11300F08091C0008823E4F78091C600089580E4CD
S113010080937C0087E880937A000895ECE7F0E020
S11301109081907F8F70892B8083EAE7F0E0808163
S11301208064808380917A0086FDFCCF8091780082
S11301309091790008951F93CF93DF9300D000D05E
S113014000D0CDB7DEB7AC01892B91F580E30E94D6
S11301505E003FC09A01ADECBCEC0E94450196954F
S1130160879596958795969587959C01220F331FC1
S1130170880F991F880F991F880F991F820F931F4B
S11301809A01281B390BC901E1E0F0E0EC0FFD1FD7
S1130190E10FF11D805D80839A010E944501AC014D
S11301A05695479556954795569547951F5F01C0B7
S11301B010E04115510571F60AC01150E1E0F0E07C
S11301C0EC0FFD1FE10FF11D80810E945E001111F3
S11301D0F4CF26960FB6F894DEBF0FBECDBFDF91E5
S11301E0CF911F9108950E944B000E9452000E94DB
S11301F07F0080E091E00E94650081E191E00E942F
S1130200650089E291E00E9465008BE391E00E9421
S113021065000E947800C82F0E945E008EE091E085
S11302200E946500C13371F484E491E00E9465008A
S113023080E00E9486000E949B008EE091E00E9474
S1130240650019C0C23399F480E591E00E9465000D
S11302500E947800C82F0E945E008EE091E00E9408
S113026065008C2F8F7085B9C07FCBB904C086E63A
S113027091E00E9465002FEF81EE94E021508040D0
S11302809040E1F700C00000B4CFA29FB001B39F3B
S1130290C001A39F700D811D1124911DB29F700D8B
S10F02A0811D1124911D0895F894FFCFD6
S11302AC0D0A2A2A2A204D454E55202A2A2A0D0A9F
S11302BC003129204C65657220506F74656E63693A
S11302CC6F6D6574726F0D0A00322920456E766964
S11302DC61722041736369690D0A004F7063696F21
S11302EC6E3A200056616C6F72204144433A2000F0
S11302FC496E677265736520756E20636172616304
S113030C7465723A20004F7063696F6E20696E7663
S10F031C616C696461203A630D0A000002
S9030000FC
