:020000020000FC
:040000000C941E003E
:040010000C94BB0091
:100038000C94A5000FEF0DBF08E00EBF00E8009379
:10004800610004E00093610000E00093C1000FE04C
:1000580004B900E005B90FE70AB90FE70BB900E0EA
:10006800009301010E9492000CE007B90BE008B967
:1000780002E00093680003E000936C000E94860091
:1000880000E0009300010093040100930501009330
:10009800060100E000930301789400910301013008
:1000A80019F0429A439802C0439A42980091040179
:1000B800023359F400E00093040100910101039513
:1000C8000F70009301010E94920000910501013018
:1000D80051F40091000103950F700093000105B9D8
:1000E80000E000930501009106010130B1F600918E
:1000F80000010A950F700093000105B900E0009314
:100108000601CBCF02E004BD04E005BD0EE407BD47
:1001180002E000936E0000E006BD08950F931F9360
:10012800EF93FF9300910101000FE2EAF1E011273C
:10013800E00FF11F04910BB9FF91EF911F910F91FF
:1001480008950F931F930FB70F9300910401039520
:1001580000930401009304010091030111E00127B9
:10016800009303010F910FBF1F910F9118950F93E3
:100178001F930FB70F9316B110FF01C003C001E022
:100188000093050111FF01C003C001E000930601BF
:100198000F910FBF1F910F91189540007500220015
:0E01A800240015000C00080065000000050092
:00000001FF
