:020000020000FC
:040000000C941E003E
:040010000C94CC0080
:100038000C94B8000FEF0DBF08E00EBF00E8009366
:10004800610004E00093610000E00093C1000FE04C
:1000580004B900E005B90FE70AB90FE70BB900E0EA
:10006800009301010E949E000CE007B90BE008B95B
:1000780002E00093680003E000936C000E94920085
:1000880000E0009300010093040100930501009330
:10009800060100E000930301789400910301013008
:1000A80019F0429A439802C0439A42980E949E00CF
:1000B800009104010436A9F400E0009304010091C2
:1000C80001011091020103950A3029F400E013950B
:1000D800163009F410E000930101109302010E9408
:1000E8009E0000910501013051F400910001039533
:1000F8000F700093000105B900E00093050100911D
:100108000601013051F6009100010A950F70009325
:10011800000105B900E000930601BFCF02E004BD6D
:1001280003E005BD0CE907BD02E000936E0000E0A6
:1001380006BD08950F931F93EF93FF93409103011A
:10014800403019F00091020102C000910101000F36
:10015800E4ECF1E01127E00FF11F04910BB9FF91D6
:10016800EF911F910F9108950F931F930FB70F935E
:10017800009104010395009304010091030111E02B
:100188000127009303010F910FBF1F910F9118953D
:100198000F931F930FB70F9316B110FF01C003C041
:1001A80001E00093050111FF01C003C001E00093C5
:1001B80006010F910FBF1F910F9118954000750010
:1001C8002200240015000C0008006500000005004E
:00000001FF
